{
  "contractName": "Company",
  "abi": [
    {
      "inputs": [],
      "payable": false,
      "stateMutability": "nonpayable",
      "type": "constructor"
    },
    {
      "anonymous": false,
      "inputs": [
        {
          "indexed": true,
          "internalType": "address",
          "name": "farmAddress",
          "type": "address"
        },
        {
          "indexed": false,
          "internalType": "uint256",
          "name": "index",
          "type": "uint256"
        },
        {
          "indexed": false,
          "internalType": "string",
          "name": "name",
          "type": "string"
        },
        {
          "indexed": false,
          "internalType": "uint256",
          "name": "size",
          "type": "uint256"
        },
        {
          "indexed": false,
          "internalType": "uint256",
          "name": "price",
          "type": "uint256"
        },
        {
          "indexed": false,
          "internalType": "string",
          "name": "location",
          "type": "string"
        },
        {
          "indexed": false,
          "internalType": "uint256",
          "name": "percentage",
          "type": "uint256"
        }
      ],
      "name": "CreateFarm",
      "type": "event"
    },
    {
      "constant": true,
      "inputs": [],
      "name": "total",
      "outputs": [
        {
          "internalType": "uint256",
          "name": "",
          "type": "uint256"
        }
      ],
      "payable": false,
      "stateMutability": "view",
      "type": "function"
    },
    {
      "constant": false,
      "inputs": [
        {
          "internalType": "address",
          "name": "farmAddress",
          "type": "address"
        },
        {
          "internalType": "string",
          "name": "name",
          "type": "string"
        },
        {
          "internalType": "uint256",
          "name": "size",
          "type": "uint256"
        },
        {
          "internalType": "uint256",
          "name": "price",
          "type": "uint256"
        },
        {
          "internalType": "string",
          "name": "location",
          "type": "string"
        },
        {
          "internalType": "uint256",
          "name": "percentage",
          "type": "uint256"
        }
      ],
      "name": "createFarm",
      "outputs": [
        {
          "internalType": "bool",
          "name": "success",
          "type": "bool"
        }
      ],
      "payable": false,
      "stateMutability": "nonpayable",
      "type": "function"
    }
  ],
  "bytecode": "0x608060405234801561001057600080fd5b5060006002819055506106ae806100286000396000f3fe608060405234801561001057600080fd5b50600436106100365760003560e01c806306cc09c01461003b5780632ddbd13a146101e3575b600080fd5b6101c9600480360360c081101561005157600080fd5b81019080803573ffffffffffffffffffffffffffffffffffffffff1690602001909291908035906020019064010000000081111561008e57600080fd5b8201836020820111156100a057600080fd5b803590602001918460018302840111640100000000831117156100c257600080fd5b91908080601f016020809104026020016040519081016040528093929190818152602001838380828437600081840152601f19601f82011690508083019250505050505050919291929080359060200190929190803590602001909291908035906020019064010000000081111561013957600080fd5b82018360208201111561014b57600080fd5b8035906020019184600183028401116401000000008311171561016d57600080fd5b91908080601f016020809104026020016040519081016040528093929190818152602001838380828437600081840152601f19601f82011690508083019250505050505050919291929080359060200190929190505050610201565b604051808215151515815260200191505060405180910390f35b6101eb6105ce565b6040518082815260200191505060405180910390f35b6000856000808973ffffffffffffffffffffffffffffffffffffffff1673ffffffffffffffffffffffffffffffffffffffff16815260200190815260200160002060010190805190602001906102589291906105d4565b50846000808973ffffffffffffffffffffffffffffffffffffffff1673ffffffffffffffffffffffffffffffffffffffff16815260200190815260200160002060020181905550836000808973ffffffffffffffffffffffffffffffffffffffff1673ffffffffffffffffffffffffffffffffffffffff16815260200190815260200160002060030181905550826000808973ffffffffffffffffffffffffffffffffffffffff1673ffffffffffffffffffffffffffffffffffffffff168152602001908152602001600020600401908051906020019061033a9291906105d4565b50816000808973ffffffffffffffffffffffffffffffffffffffff1673ffffffffffffffffffffffffffffffffffffffff168152602001908152602001600020600501819055506001808890806001815401808255809150509060018203906000526020600020016000909192909190916101000a81548173ffffffffffffffffffffffffffffffffffffffff021916908373ffffffffffffffffffffffffffffffffffffffff160217905550036000808973ffffffffffffffffffffffffffffffffffffffff1673ffffffffffffffffffffffffffffffffffffffff168152602001908152602001600020600001819055506002600081548092919060010191905055508673ffffffffffffffffffffffffffffffffffffffff167fd9fdac2413e5267705ff1dec85235f1d45cc33c157601fbdd6043265a84893836000808a73ffffffffffffffffffffffffffffffffffffffff1673ffffffffffffffffffffffffffffffffffffffff168152602001908152602001600020600001548888888888604051808781526020018060200186815260200185815260200180602001848152602001838103835288818151815260200191508051906020019080838360005b8381101561051a5780820151818401526020810190506104ff565b50505050905090810190601f1680156105475780820380516001836020036101000a031916815260200191505b50838103825285818151815260200191508051906020019080838360005b83811015610580578082015181840152602081019050610565565b50505050905090810190601f1680156105ad5780820380516001836020036101000a031916815260200191505b509850505050505050505060405180910390a2600190509695505050505050565b60025481565b828054600181600116156101000203166002900490600052602060002090601f016020900481019282601f1061061557805160ff1916838001178555610643565b82800160010185558215610643579182015b82811115610642578251825591602001919060010190610627565b5b5090506106509190610654565b5090565b61067691905b8082111561067257600081600090555060010161065a565b5090565b9056fea265627a7a72315820256878ea3da797d1a80e820ea5a013bfbc3e7f3ce08442579f0c080985705d7964736f6c63430005100032",
  "source": "// SPDX-License-Identifier: MIT\n//pragma solidity >=0.4.6 <0.9.0;\npragma solidity ^0.5.16;\n\ncontract Company {\n  struct Farm {\n    uint index;\n    string name;\n    uint size;\n    uint256 price;\n    string location;\n    uint256 percentage;\n  }\n\n  event CreateFarm (\n    address indexed farmAddress,\n    uint index,\n    string name,\n    uint size,\n    uint256 price,\n    string location,\n    uint256 percentage\n  );\n\n  mapping (address => Farm) private farms;\n  address[] private farmIndex;\n  uint public total;\n\n  constructor() public {\n    total = 0;\n  }\n\n  function createFarm(address farmAddress, string memory name, uint size, uint256 price, string memory location, uint256 percentage) public returns (bool success){\n    farms[farmAddress].name = name;\n    farms[farmAddress].size = size;\n    farms[farmAddress].price = price;\n    farms[farmAddress].location = location;\n    farms[farmAddress].percentage = percentage;\n    farms[farmAddress].index = farmIndex.push(farmAddress) - 1;\n    total++;\n    //emit event\n    emit CreateFarm(farmAddress, farms[farmAddress].index, name, size, price, location, percentage);\n    return true;\n  }\n}\n",
  "sourcePath": "C:/Users/HP/OneDrive/Documents/work/savannah/contracts/Company.sol",
  "compiler": {
    "name": "solc",
    "version": "0.5.16+commit.9c3226ce.Emscripten.clang"
  },
  "schemaVersion": "3.4.1",
  "updatedAt": "2021-08-09T17:13:46.488Z",
  "devdoc": {
    "methods": {}
  },
  "userdoc": {
    "methods": {}
  }
}